{
  "contractName": "productRecords",
  "abi": [
    {
      "inputs": [
        {
          "internalType": "string",
          "name": "id_code",
          "type": "string"
        },
        {
          "internalType": "bool",
          "name": "is_fake",
          "type": "bool"
        }
      ],
      "name": "setProduct",
      "outputs": [],
      "stateMutability": "nonpayable",
      "type": "function"
    },
    {
      "inputs": [],
      "name": "getProduct",
      "outputs": [
        {
          "internalType": "string",
          "name": "",
          "type": "string"
        },
        {
          "internalType": "bool",
          "name": "",
          "type": "bool"
        }
      ],
      "stateMutability": "view",
      "type": "function",
      "constant": true
    },
    {
      "inputs": [],
      "name": "getHello",
      "outputs": [
        {
          "internalType": "string",
          "name": "",
          "type": "string"
        }
      ],
      "stateMutability": "view",
      "type": "function",
      "constant": true
    }
  ],
  "bytecode": "0x608060405234801561001057600080fd5b506105f7806100206000396000f3fe608060405234801561001057600080fd5b50600436106100415760003560e01c80634ba20050146100465780638da9b77214610065578063b7d1e20e14610083575b600080fd5b61004e61009f565b60405161005c92919061033e565b60405180910390f35b61006d61014e565b60405161007a919061036e565b60405180910390f35b61009d60048036038101906100989190610505565b61018b565b005b6060600080600001600060010160009054906101000a900460ff168180546100c690610590565b80601f01602080910402602001604051908101604052809291908181526020018280546100f290610590565b801561013f5780601f106101145761010080835404028352916020019161013f565b820191906000526020600020905b81548152906001019060200180831161012257829003601f168201915b50505050509150915091509091565b60606040518060400160405280600d81526020017f686920666f726d20686572652000000000000000000000000000000000000000815250905090565b60405180604001604052808381526020018215158152506000808201518160000190805190602001906101bf9291906101e7565b5060208201518160010160006101000a81548160ff0219169083151502179055509050505050565b8280546101f390610590565b90600052602060002090601f016020900481019282610215576000855561025c565b82601f1061022e57805160ff191683800117855561025c565b8280016001018555821561025c579182015b8281111561025b578251825591602001919060010190610240565b5b509050610269919061026d565b5090565b5b8082111561028657600081600090555060010161026e565b5090565b600081519050919050565b600082825260208201905092915050565b60005b838110156102c45780820151818401526020810190506102a9565b838111156102d3576000848401525b50505050565b6000601f19601f8301169050919050565b60006102f58261028a565b6102ff8185610295565b935061030f8185602086016102a6565b610318816102d9565b840191505092915050565b60008115159050919050565b61033881610323565b82525050565b6000604082019050818103600083015261035881856102ea565b9050610367602083018461032f565b9392505050565b6000602082019050818103600083015261038881846102ea565b905092915050565b6000604051905090565b600080fd5b600080fd5b600080fd5b600080fd5b7f4e487b7100000000000000000000000000000000000000000000000000000000600052604160045260246000fd5b6103e6826102d9565b810181811067ffffffffffffffff82111715610405576104046103ae565b5b80604052505050565b6000610418610390565b905061042482826103dd565b919050565b600067ffffffffffffffff821115610444576104436103ae565b5b61044d826102d9565b9050602081019050919050565b82818337600083830152505050565b600061047c61047784610429565b61040e565b905082815260208101848484011115610498576104976103a9565b5b6104a384828561045a565b509392505050565b600082601f8301126104c0576104bf6103a4565b5b81356104d0848260208601610469565b91505092915050565b6104e281610323565b81146104ed57600080fd5b50565b6000813590506104ff816104d9565b92915050565b6000806040838503121561051c5761051b61039a565b5b600083013567ffffffffffffffff81111561053a5761053961039f565b5b610546858286016104ab565b9250506020610557858286016104f0565b9150509250929050565b7f4e487b7100000000000000000000000000000000000000000000000000000000600052602260045260246000fd5b600060028204905060018216806105a857607f821691505b6020821081036105bb576105ba610561565b5b5091905056fea2646970667358221220a8238f5d5b6dc7aa13acccb6c4e3843ca6ff1e14450faf97ea5da0fc333fda7164736f6c634300080d0033",
  "immutableReferences": {},
  "source": "pragma solidity >=0.4.21;\n// import library file\ncontract productRecords {\n  // enum type variable to store user gender\n\n  // Actual user object which we will store\n  struct product{\n    string id_code;\n    bool is_fake;\n  }\n  // vaccine object\n  product product_obj;\n\n\n\n  // set user public function\n  // This is similar to persisting object in db.\n  function setProduct(string memory  id_code, bool is_fake) public {\n    product_obj = product({id_code:id_code, is_fake: is_fake});\n  }\n\n  // get user public function\n  // This is similar to getting object from db.\n  function getProduct() public view  returns (string memory , bool) {\n    return (product_obj.id_code, product_obj.is_fake);\n  }\n\n  function getHello() public view  returns (string memory ) {\n    return (\"hi form here \" );\n  }\n}",
  "sourcePath": "/home/ammar/blockchain/varificationSystem/contracts/Product.sol",
  "compiler": {
    "name": "solc",
    "version": "0.8.13+commit.abaa5c0e.Emscripten.clang"
  },
  "schemaVersion": "3.4.14",
  "updatedAt": "2023-07-03T23:06:08.314Z",
  "networkType": "ethereum",
  "devdoc": {
    "kind": "dev",
    "methods": {},
    "version": 1
  },
  "userdoc": {
    "kind": "user",
    "methods": {},
    "version": 1
  }
}