{
  "contractName": "vaccineRecords",
  "abi": [
    {
      "inputs": [
        {
          "internalType": "string",
          "name": "id_code",
          "type": "string"
        },
        {
          "internalType": "bool",
          "name": "is_vaccinated",
          "type": "bool"
        }
      ],
      "name": "setVaccine",
      "outputs": [],
      "stateMutability": "nonpayable",
      "type": "function"
    },
    {
      "inputs": [],
      "name": "getVaccine",
      "outputs": [
        {
          "internalType": "string",
          "name": "",
          "type": "string"
        },
        {
          "internalType": "bool",
          "name": "",
          "type": "bool"
        }
      ],
      "stateMutability": "view",
      "type": "function",
      "constant": true
    }
  ],
  "bytecode": "0x608060405234801561001057600080fd5b5061056f806100206000396000f3fe608060405234801561001057600080fd5b50600436106100365760003560e01c80630a26a74f1461003b578063d1e0b56914610057575b600080fd5b610055600480360381019061005091906103b6565b610076565b005b61005f6100d2565b60405161006d9291906104a9565b60405180910390f35b60405180604001604052808381526020018215158152506000808201518160000190805190602001906100aa929190610181565b5060208201518160010160006101000a81548160ff0219169083151502179055509050505050565b6060600080600001600060010160009054906101000a900460ff168180546100f990610508565b80601f016020809104026020016040519081016040528092919081815260200182805461012590610508565b80156101725780601f1061014757610100808354040283529160200191610172565b820191906000526020600020905b81548152906001019060200180831161015557829003601f168201915b50505050509150915091509091565b82805461018d90610508565b90600052602060002090601f0160209004810192826101af57600085556101f6565b82601f106101c857805160ff19168380011785556101f6565b828001600101855582156101f6579182015b828111156101f55782518255916020019190600101906101da565b5b5090506102039190610207565b5090565b5b80821115610220576000816000905550600101610208565b5090565b6000604051905090565b600080fd5b600080fd5b600080fd5b600080fd5b6000601f19601f8301169050919050565b7f4e487b7100000000000000000000000000000000000000000000000000000000600052604160045260246000fd5b61028b82610242565b810181811067ffffffffffffffff821117156102aa576102a9610253565b5b80604052505050565b60006102bd610224565b90506102c98282610282565b919050565b600067ffffffffffffffff8211156102e9576102e8610253565b5b6102f282610242565b9050602081019050919050565b82818337600083830152505050565b600061032161031c846102ce565b6102b3565b90508281526020810184848401111561033d5761033c61023d565b5b6103488482856102ff565b509392505050565b600082601f83011261036557610364610238565b5b813561037584826020860161030e565b91505092915050565b60008115159050919050565b6103938161037e565b811461039e57600080fd5b50565b6000813590506103b08161038a565b92915050565b600080604083850312156103cd576103cc61022e565b5b600083013567ffffffffffffffff8111156103eb576103ea610233565b5b6103f785828601610350565b9250506020610408858286016103a1565b9150509250929050565b600081519050919050565b600082825260208201905092915050565b60005b8381101561044c578082015181840152602081019050610431565b8381111561045b576000848401525b50505050565b600061046c82610412565b610476818561041d565b935061048681856020860161042e565b61048f81610242565b840191505092915050565b6104a38161037e565b82525050565b600060408201905081810360008301526104c38185610461565b90506104d2602083018461049a565b9392505050565b7f4e487b7100000000000000000000000000000000000000000000000000000000600052602260045260246000fd5b6000600282049050600182168061052057607f821691505b602082108103610533576105326104d9565b5b5091905056fea26469706673582212203f1f00bf0ebd4a2be140e532385a7301b44683a020f68b788a1d256d1db7a26964736f6c634300080d0033",
  "immutableReferences": {},
  "source": "pragma solidity >=0.4.21;\n// import library file\ncontract vaccineRecords {\n  // enum type variable to store user gender\n\n  // Actual user object which we will store\n  struct vaccine{\n    string id_code;\n    bool is_vaccinated;\n  }\n  // vaccine object\n  vaccine vaccine_obj;\n\n\n\n  // set user public function\n  // This is similar to persisting object in db.\n  function setVaccine(string memory  id_code, bool is_vaccinated) public {\n    vaccine_obj = vaccine({id_code:id_code, is_vaccinated: is_vaccinated});\n  }\n\n  // get user public function\n  // This is similar to getting object from db.\n  function getVaccine() public view returns (string memory , bool) {\n    return (vaccine_obj.id_code, vaccine_obj.is_vaccinated);\n  }\n\n}",
  "sourcePath": "/home/ammar/blockchain/varificationSystem/contracts/vaccine.sol",
  "compiler": {
    "name": "solc",
    "version": "0.8.13+commit.abaa5c0e.Emscripten.clang"
  },
  "schemaVersion": "3.4.14",
  "updatedAt": "2023-07-03T23:06:08.318Z",
  "networkType": "ethereum",
  "devdoc": {
    "kind": "dev",
    "methods": {},
    "version": 1
  },
  "userdoc": {
    "kind": "user",
    "methods": {},
    "version": 1
  }
}